:030000000204995E
:0C049900787FE4F6D8FD7581300204E0A5
:1007A40020200020005345542054494D4500485210
:1007B4003A004D4E3A0053455420444154450044B8
:0B07C400593A004D543A0059523A00D7
:0C09480001193C010D00011100010F001D
:1007730020942D7F147E0012086D309415E4F5113A
:10078300050DE50DB40103E4F50FE50DB4020375A2
:100793000F02E50DC394034007E4F511F50FF50DC2
:0107A3002233
:10073C0020950E7F147E0012086D30950405091566
:10074C000FE509C394184003E4F50920960E7F14B5
:10075C007E0012086D309604051D150FE51DC3941F
:07076C003C4003E4F51D22EF
:10052500E51EB40214E50B54037009E50B6005756F
:10053500211D802475211C801FE51E64046011E5C2
:100545001E6406600BE51E64096005E51EB40B0517
:1005550075211E800375211F2095187F147E0012BA
:10056500086D30950E0516150FE516D39521400338
:100575007516012096187F147E0012086D30960EB0
:10058500051E150FE51ED3940C4003751E0120971B
:10059500187F147E0012086D30970E050B150FE5B8
:0905A5000BD394634003E4F50B51
:0105AE00222A
:1008FB002097117F147E0012086D309707E4F511D5
:05090B00F50FF50D22BF
:10000300C2B6C2B71206F7E50D600302023D12073E
:100013007330B604D2B78002C2B7120773E511700A
:100023000D12096F7F0A7E0012086D751101120708
:100033007375240075250075260A75270075280039
:100043007529087B007A0079141205AF75240075B1
:10005300250075260C75270075280075290E752A4D
:1000630000752B00752C107B007A0079131203CADC
:10007300120773E5086519608E120773E4FDFF121A
:10008300084D7BFF7A0779A4120923E4FD7F0A1246
:10009300084D7BFF7A0779A4120923E4FD7F0F1231
:1000A300084D7BFF7A0779A71209231207737D0195
:1000B300E4FF12084D7BFF7A0779A41209237D011F
:1000C3007F0A12084D7BFF7A0779A41209237D0169
:1000D3007F0F12084D7BFF7A0779A71209231207B6
:1000E30073E4FD7F0212084DE51475F00A84243091
:1000F300FF12099DE51475F00A84E5F02430FF1220
:10010300099D7F3A12099DE50A75F00A842430FFA0
:1001130012099D120773E50A75F00A84E5F024308D
:10012300FF12099D7F3A12099DE50875F00A8424A0
:1001330030FF12099DE50875F00A84E5F02430FFCD
:1001430012099D1207737D017F0212084DE50C759C
:10015300F00A842430FF12099DE50C75F00A84E54A
:10016300F02430FF12099D7F2F12099DE50E75F0D3
:100173000A842430FF12099D120773E50E75F00AF5
:1001830084E5F02430FF12099D7F2F12099DE510AD
:1001930075F00A842430FF12099DE51075F00A8476
:1001A300E5F02430FF12099D120773120987120923
:1001B300931207FA8F151207FA8F121207FA8F1A82
:1001C3001207FA8F181207FA8F17120773E4FD7FCD
:1001D3000C12084DE51A75F00A842430FF12099DAC
:1001E300E51A75F00A84E5F02430FF12099D7F4378
:1001F30012099D1207737D017F0C12084DE51575D9
:10020300F00A842430FF12099DE51575F00A84E590
:10021300F02430FF12099D7F2512099D851409855D
:100223000A1D85081B85131C850C16850E1E85105B
:100233000B85081912077302000AE50D64016003B8
:100243000202F012077312073C1208FB30B604D205
:10025300B78002C2B712077312073C1208FBE511FD
:10026300700D12096F7F0A7E0012086D751101125D
:10027300077312073C1208FBE50F70BEFD7F0412E3
:10028300084D7BFF7A0779A91209237D017F0212AA
:10029300084D7BFF7A0779B2120923E50975F00A45
:1002A300842430FF12099DE50975F00A84E5F024E2
:1002B30030FF12099D7D017F0912084D7BFF7A07EC
:1002C30079B6120923E51D75F00A842430FF12095B
:1002D3009DE51D75F00A84E5F02430FF12099DE4C5
:1002E300FBAD1DAF09120693750F01808BE50D64FD
:1002F30002600302000A12077312052530B604D206
:10030300B78002C2B7120773120525E511700D12EB
:10031300096F7F0A7E0012086D75110112077312AF
:100323000525E50FB402C6E4FD7F0112084D7BFFEE
:100333007A0779BA120923E4FD7F0B12084D7BFF7C
:100343007A0779C3120923E51675F00A842430FF6E
:1003530012099DE51675F00A84E5F02430FF1209B1
:100363009D7D017F0312084D7BFF7A0779C7120930
:1003730023E51E75F00A842430FF12099DE51E75DE
:10038300F00A84E5F02430FF12099D7D017F0A12F3
:10039300084D7BFF7A0779CB120923E50B75F00A29
:1003A300842430FF12099DE50B75F00A84E5F024DF
:1003B30030FF12099D850B24AB1EAD167F0112067B
:0703C3002A750F0302032558
:1008C900E4F52FF530C3E5309FE52F9E500B000569
:0A08D90030E53070F0052F80EC22AE
:030910001208AD1D
:10091300D2A27F037E001208C9C2A27F320208C995
:1008AD00EF1392A4EFC3131392A5EF1313543F1339
:0C08BD0092A6EF131313541F1392A722EE
:10093600AD07EDC4540FFF120910AF051208AD0242
:02094600091393
:0C096F007F011209367F0A7E000208C9D1
:1006F700E4FF1208AD7F147E0012086DC2A0C2A1EC
:100707007F031209107F057E0012086D1209137FFF
:10071700647E001208C91209137F021208AD12097C
:10072700137F281209367F0C1209367F0612093605
:050737007F01020936FC
:10084D00ED7006EF2480FC8004EF24C0FC7FE87E71
:10085D00031208C9AF041209367F327E000208C99F
:08099D00D2A0120936C2A0220B
:100923001207CFFF600C12099D740129F9E43AFA0A
:0309330080EE2231
:10086D00E4FDFCC3ED9FEC9E5015E4FBFA0BBB00C1
:0F087D00010AEB647B4A70F50DBD00010C80E4AD
:01088C002249
:07095500D2B412095CD2B319
:06095C0000000000002273
:0509BB00D2B3D2B4220A
:0D096200D2B312095CC2B412095CC2B32208
:0809A500C2B4120957D2B422BA
:0B097B00120955A2B49200C2B3A20002
:01098600224E
:1008E300E4FEEF3392B4D2B312095CC2B3EF25E056
:0808F300FF0EBE08ED02097BB7
:0809AD00C2B4120957C2B322C3
:0609B500120955C2B32235
:10088D00E4FFFE120955EF25E0FF30B403430701E5
:0F089D00C2B30EBE08ED3000030209AD1209B55B
:0108AC002229
:100693008F218D228B23E52375F00A84C454F0FF48
:1006A300E52375F00A84E5F04FF523E52275F00A9A
:1006B30084C454F0FFE52275F00A84E5F04FF52277
:1006C300E52175F00A84C454F0FFE52175F00A842E
:1006D300E5F04FF5211209627FD01208E3E4FF121F
:1006E30008E3AF231208E3AF221208E3AF21120895
:0406F300E30209A570
:0605AF008B218A22892342
:1005B5001209627FD01208E3E4FF1208E312096210
:1005C5007FD11208E3D20012088D8F2CD2001208B9
:1005D5008D8F2BC20012088D8F2A1209A5E52CC418
:1005E500540F75F00AA4FFE52C540F2FAB27AA284A
:1005F500A9291207E8E52BC4540F75F00AA4FFE5F5
:100605002B540F2FAB24AA25A9261207E8E52AC4E7
:10061500540F75F00AA4FFE52A540F2FAB21AA2227
:05062500A9230207E813
:10062A008F218D228B23E52275F00A84C454F0FFB2
:10063A00E52275F00A84E5F04FF522E52375F00A04
:10064A0084C454F0FFE52375F00A84E5F04FF523DE
:10065A00E52475F00A84C454F0FFE52475F00A8491
:10066A00E5F04FF5241209627FD01208E37F0312E6
:10067A0008E3AF211208E3AF221208E3AF231208FE
:09068A00E3AF241208E30209A504
:1003CA008B218A2289231209627FD01208E37F03D4
:1003DA001208E31209627FD11208E3D20012088DD3
:1003EA00AB21AA22A923EF1207E8D20012088DAB8B
:1003FA0024AA25A926EF1207E8D20012088DAB27F6
:10040A00AA28A929EF1207E8C20012088DAB2AAA66
:10041A002BA92CEF1207E81209A5AB21AA22A923BE
:10042A001207CF54071207E8AB24AA25A9261207F8
:10043A00CF543F1207E8AB24AA25A9261207CFFFFB
:10044A00C4540F75F00AA4FEEF540F2E1207E8AB3E
:10045A0027AA28A9291207CF541F1207E8AB27AAEF
:10046A0028A9291207CFFFC4540F75F00AA4FEEF7A
:10047A00540F2E1207E8AB2AAA2BA92C1207CFFF7A
:0F048A00C4540F75F00AA4FEEF540F2E0207E8BA
:1008240000000000000000000000000000000000C4
:1008340000000000000000000000000000000000B4
:0908440000000000000000002289
:0C098700C2B57F147E0012086DD2B522AC
:0A09930020B5FD30B5FD20B5FD22B2
:1007FA00E4FFFEFDFC30B5FD120824EF25E0FFEE14
:10080A0033FE30B506EF4401FF800020B5FD0DBD73
:09081A0000010CED64084C70DCD7
:0108230022B2
:1004A500020003E493A3F8E493A34003F68001F26A
:1004B50008DFF48029E493A3F85407240CC8C33358
:1004C500C4540F4420C8834004F456800146F6DF27
:1004D500E4800B0102040810204080900948E47E66
:1004E500019360BCA3FF543F30E509541FFEE4931C
:1004F500A360010ECF54C025E060A840B8E493A3E3
:10050500FAE493A3F8E493A3C8C582C8CAC583CA0D
:10051500F0A3C8C582C8CAC583CADFE9DEE780BEC5
:0109540000A2
:1007CF00BB010689828A83E0225002E722BBFE0228
:0907DF00E32289828A83E493225B
:1007E800BB010689828A83F0225002F722BBFE01F0
:0207F800F322EA
:00000001FF
