:0300000002047C7B
:0C047C00787FE4F6D8FD7581300204C3DF
:1008070020200020005345542054494D45004852AC
:100817003A004D4E3A005345542044415445004454
:0B082700593A004D543A0059523A0073
:0C09920001193C010D00011100010F00D3
:1007D60020902D7F147E001208A5309015E4F511A7
:1007E600050DE50DB40103E4F50FE50DB40203753F
:1007F6000F02E50DC394034007E4F511F50FF50D5F
:0108060022CF
:10079F0020910E7F147E001208A5309104050915D3
:1007AF000FE509C394184003E4F50920920E7F1456
:1007BF007E001208A5309204051D150FE51DC39488
:0707CF003C4003E4F51D228C
:10050800E51EB40214E50B54037009E50B6005758C
:10051800211D802475211C801FE51E64046011E5DF
:100528001E6406600BE51E64096005E51EB40B0534
:1005380075211E800375211F2091187F147E0012DB
:1005480008A530910E0516150FE516D39521400321
:100558007516012092187F147E001208A530920E9D
:10056800051E150FE51ED3940C4003751E0120933C
:10057800187F147E001208A530930E050B150FE5A1
:090588000BD394634003E4F50B6E
:010591002247
:100933002093117F147E001208A5309307E4F5116C
:05094300F50FF50D2287
:1000030012075AE50D60030202411207D6E511708B
:100013000D1209AC7F0A7E001208A57511011207A3
:10002300D675240075250075260A752700752800E6
:100033007529087B007A007914120612752400755D
:10004300250075260C75270075280075290E752A5D
:1000530000752B00752C107B007A0079131203AD09
:100063001207D6E5086519609A1207D6E4FDFF1258
:1000730008857BFF7A08790712095BE4FD7F0A1282
:1000830008857BFF7A08790712095BE4FD7F0F126D
:1000930008857BFF7A08790A12095B1207D67D016E
:1000A300E4FF1208857BFF7A08790712095B7D015B
:1000B3007F0A1208857BFF7A08790712095B7D01A5
:1000C3007F0F1208857BFF7A08790A12095B1207F2
:1000D300D6E4FD7F02120885E51475F00A84243006
:1000E300FF1209DAE51475F00A84E5F02430FF12F3
:1000F30009DA7F3A1209DAE50A75F00A842430FF37
:100103001209DA1207D6E50A75F00A84E5F02430FD
:10011300FF1209DA7F3A1209DAE50875F00A842436
:1001230030FF1209DAE50875F00A84E5F02430FFA0
:100133001209DA1207D67D017F02120885E50C75D4
:10014300F00A842430FF1209DAE50C75F00A84E51D
:10015300F02430FF1209DA7F2F1209DAE50E75F069
:100163000A842430FF1209DA1207D6E50E75F00A65
:1001730084E5F02430FF1209DA7F2F1209DAE51043
:1001830075F00A842430FF1209DAE51075F00A8449
:10019300E5F02430FF1209DA1207D61209C4120956
:1001A300D01208328F151208328F121208328F1AAA
:1001B3001208328F181208328F171207D6E4FD7F08
:1001C3000C120885E51A24FEFFE434FFFE7C007D53
:1001D3000A1205BDEF2430FF1209DAE51A24FEFFE7
:1001E300E434FFFE7C007D0A1205BDED2430FF12CE
:1001F30009DA7F431209DA1207D67D017F0C120850
:1002030085E51575F00A842430FF1209DAE51575C2
:10021300F00A84E5F02430FF1209DA7F251209DAA7
:10022300851409850A1D85081B85131C850C1685F5
:100233000E1E85100B8508191207D6020006E50D60
:10024300640160030202E21207D612079F12093308
:10025300E511700D1209AC7F0A7E001208A5751115
:10026300011207D612079F120933E50F70D0FD7FE5
:10027300041208857BFF7A08790C12095B7D017FE4
:10028300021208857BFF7A08791512095BE5097567
:10029300F00A842430FF1209DAE50975F00A84E5CF
:1002A300F02430FF1209DA7D017F091208857BFFF4
:1002B3007A08791912095BE51D75F00A842430FF69
:1002C3001209DAE51D75F00A84E5F02430FF1209FE
:1002D300DAE4FBAD1DAF091206F6750F01808BE55D
:1002E3000D640260030200061207D6120508E51129
:1002F300700D1209AC7F0A7E001208A57511011258
:1003030007D6120508E50FB402D5E4FD7F011208F4
:10031300857BFF7A08791D12095BE4FD7F0B1208C8
:10032300857BFF7A08792612095BE51675F00A8446
:100333002430FF1209DAE51675F00A84E5F024305B
:10034300FF1209DA7D017F031208857BFF7A0879A2
:100353002A12095BE51E75F00A842430FF1209DABC
:10036300E51E75F00A84E5F02430FF1209DA7D01F9
:100373007F0A1208857BFF7A08792E12095BE50B49
:1003830075F00A842430FF1209DAE50B75F00A844C
:10039300E5F02430FF1209DA850B24AB1EAD167F7E
:0A03A3000112068D750F0302030816
:10090100E4F52FF530C3E5309FE52F9E500B000530
:0A09110030E53070F0052F80EC2275
:030948001208E5AD
:10094B00D2A27F037E00120901C2A27F32020901EB
:1008E500EF1392A4EFC3131392A5EF1313543F1301
:0C08F50092A6EF131313541F1392A722B6
:10096E00AD07EDC4540FFF120948AF051208E5029A
:02097E00094B23
:0C09AC007F0112096E7F0A7E0002090123
:10075A00E4FF1208E57F147E001208A5C2A0C2A118
:10076A007F031209487F057E001208A512094B7FF4
:10077A00647E0012090112094B7F021208E5120970
:10078A004B7F2812096E7F0C12096E7F0612096EC2
:05079A007F0102096E61
:10088500ED7006EF2480FC8004EF24C0FC7FE87E39
:1008950003120901AF0412096E7F327E00020901BD
:0809DA00D2A012096EC2A02296
:10095B00120592FF600C1209DA740129F9E43AFAD4
:03096B0080EE22F9
:1008A500E4FDFCC3ED9FEC9E5015E4FBFA0BBB0089
:0F08B500010AEB647B4A70F50DBD00010C80E475
:0108C4002211
:07098000D295120987D297FE
:0B098700000000000000000000002243
:0509F800D297D2952208
:0D099F00D297120987C295120987C29722CC
:0809E200C295120982D2952290
:0B09B800120980A2959200C297A200D5
:0109C3002211
:10091B00E4FEEF339295D297120987C297EF25E049
:08092B00FF0EBE08ED0209B841
:0809EA00C295120982C2972296
:0609F200120980C29722E9
:1008C500E4FFFE120980EF25E0FF309503430701A1
:0F08D500C2970EBE08ED3000030209EA1209F2C5
:0108E40022F1
:1006F6008F218D228B23E52375F00A84C454F0FFE5
:10070600E52375F00A84E5F04FF523E52275F00A36
:1007160084C454F0FFE52275F00A84E5F04FF52213
:10072600E52175F00A84C454F0FFE52175F00A84CA
:10073600E5F04FF52112099F7FD012091BE4FF1245
:10074600091BAF2312091BAF2212091BAF21120985
:040756001B0209E297
:060612008B218A228923DE
:1006180012099F7FD012091BE4FF12091B12099FC0
:100628007FD112091BD2001208C58F2CD2001208E4
:10063800C58F2BC2001208C58F2A1209E2E52CC407
:10064800540F75F00AA4FFE52C540F2FAB27AA28E6
:10065800A9291205ABE52BC4540F75F00AA4FFE5D0
:100668002B540F2FAB24AA25A9261205ABE52AC4C3
:10067800540F75F00AA4FFE52A540F2FAB21AA22C4
:05068800A9230205ABEF
:10068D008F218D228B23E52275F00A84C454F0FF4F
:10069D00E52275F00A84E5F04FF522E52375F00AA1
:1006AD0084C454F0FFE52375F00A84E5F04FF5237B
:1006BD00E52475F00A84C454F0FFE52475F00A842E
:1006CD00E5F04FF52412099F7FD012091B7F03120D
:1006DD00091BAF2112091BAF2212091BAF231209EF
:0906ED001BAF2412091B0209E2F3
:1003AD008B218A22892312099F7FD012091B7F037B
:1003BD0012091B12099F7FD112091BD2001208C509
:1003CD00AB21AA22A923EF1205ABD2001208C5ABAF
:1003DD0024AA25A926EF1205ABD2001208C5AB271A
:1003ED00AA28A929EF1205ABC2001208C5AB2AAA8B
:1003FD002BA92CEF1205AB1209E2AB21AA22A923DE
:10040D0012059254071205ABAB24AA25A926120595
:10041D0092543F1205ABAB24AA25A926120592FFD3
:10042D00C4540F75F00AA4FEEF540F2E1205ABAB9A
:10043D0027AA28A929120592541F1205ABAB27AA8A
:10044D0028A929120592FFC4540F75F00AA4FEEFD6
:10045D00540F2E1205ABAB2AAA2BA92C120592FF15
:0F046D00C4540F75F00AA4FEEF540F2E0205AB16
:10085C00000000000000000000000000000000008C
:10086C00000000000000000000000000000000007C
:09087C0000000000000000002251
:0C09C400C2B07F147E001208A5D2B02241
:0A09D00020B0FD30B0FD20B0FD2284
:10083200E4FFFEFDFC30B0FD12085CEF25E0FFEEA8
:1008420033FE30B006EF4401FF800020B0FD0DBD45
:0908520000010CED64084C70DC9F
:01085B00227A
:10048800020003E493A3F8E493A34003F68001F287
:1004980008DFF48029E493A3F85407240CC8C33375
:1004A800C4540F4420C8834004F456800146F6DF44
:1004B800E4800B0102040810204080900992E47E39
:1004C800019360BCA3FF543F30E509541FFEE49339
:1004D800A360010ECF54C025E060A840B8E493A300
:1004E800FAE493A3F8E493A3C8C582C8CAC583CA2B
:1004F800F0A3C8C582C8CAC583CADFE9DEE780BEE3
:01099E000058
:10059200BB010689828A83E0225002E722BBFE0267
:0905A200E32289828A83E493229A
:1005AB00BB010689828A83F0225002F722BBFE012F
:0205BB00F32229
:1005BD00BC000BBE0029EF8DF084FFADF022E4CC22
:1005CD00F875F008EF2FFFEE33FEEC33FCEE9DECEB
:1005DD00984005FCEE9DFE0FD5F0E9E4CEFD22ED31
:1005ED00F8F5F0EE8420D21CFEADF075F008EF2F7B
:1005FD00FFED33FD4007985006D5F0F222C398FD6C
:05060D000FD5F0EA2208
:00000001FF
